:100000000C9462000C948A000C948A000C948A0070
:100010000C948A000C948A000C948A000C948A0038
:100020000C948A000C946F080C948A000C94A90A12
:100030000C94DB0A0C948A000C948A000C948A00BD
:100040000C948A000C9457070C948A000C948A0034
:100050000C948A0000000002000000000000000074
:100060000504000700000000000000000000000080
:100070000000000001020408102040800102040872
:100080001020408001020408102040800102040872
:100090001020408002020202020202020404040450
:1000A0000404040403030303030303030101010124
:1000B0000101010100003B0038003500320032012F
:1000C00059060B0B11241FBECFE5D4E0DEBFCDBF18
:1000D00011E0A0E6B0E0EEEAF8E102C005900D9272
:1000E000A23CB107D9F723E0A2ECB1E001C01D9218
:1000F000A438B207E1F710E0C2E6D0E004C02197CF
:10010000FE010E944F0CCF35D107C9F70E941D0C8C
:100110000C94550C0C94000026E040E052EC61E099
:1001200070E087EE92E00E944C0A68E873E180E09C
:1001300090E00E94DF0864E670E087EE92E00E94A3
:10014000720B68EC70E080E090E00E94DF086FE6E0
:1001500070E087EE92E00E94720B64E670E080E04F
:1001600090E00E94DF0884ED91E00E940E0464E0BC
:1001700070E084ED91E00E94A20460E084ED91E0E3
:100180000C94FD04E091FD01F091FE016091FB01F2
:100190007091FC014091F9015091FA018091F701B1
:1001A0009091F8019F01281B390BC90137FF03C04B
:1001B0009195819591092091620030916300820FA1
:1001C000931F2091F5013091F601DB01A21BB30BC7
:1001D0009D01B7FF03C0319521953109820F931F0F
:1001E0002091F3013091F401DA01A21BB30B9D01C0
:1001F000B7FF03C0319521953109820F931F0A97EC
:100200009093630080936200F093F801E093F7010C
:100210007093F6016093F5015093F4014093F3015C
:1002200097FF12C080E293E0909363008093620096
:10023000F093F201E093F1017093F0016093EF010C
:100240005093610040936000809162009091630040
:100250008132934034F080E293E090936300809386
:100260006200089584ED91E00C9477030F931F933F
:10027000CF93DF9364E670E087EE92E00E94720B0A
:1002800064E670E080E090E00E94DF086CE770E0D8
:1002900087EE92E00E94720B60E47FE180E090E0E4
:1002A0000E94DF0869E870E087EE92E00E94720B1E
:1002B000109200021092FF0187EE92E00E948809DE
:1002C00018161906B4F487EE92E00E94A209209154
:1002D000FF0130910002F901EF5FFD4F80832F5F36
:1002E0003F4F309300022093FF012931310521F760
:1002F000DFCF66E970E087EE92E00E94720B64E661
:1003000070E080E090E00E94DF0802EC11E0CBECAE
:10031000D1E0DE01F80180E381938D9321E0EB3C95
:10032000F207D1F7109200021092FF0187EE92E0DF
:100330000E94880918161906B4F487EE92E00E940C
:10034000A2092091FF0130910002F901EF5FFD4FFA
:1003500080832F5F3F4F309300022093FF012931AC
:10036000310521F7DFCF8091010280538A3090F46C
:10037000E1E0F2E04BEC51E082EC91E02191DC0114
:100380002D93CD012185DA012D93AD01B2E0EA3044
:10039000FB07A1F729EF31E04BEF51E06DEF71E082
:1003A00084ED91E00E94760466EA70E087EE92E0C8
:1003B0000E94720B60ED77E080E090E00E94DF0821
:1003C000109200021092FF0187EE92E00E948809CD
:1003D00018161906B4F487EE92E00E94A209209143
:1003E000FF0130910002F901EF5FFD4F80832F5F25
:1003F0003F4F309300022093FF012931310521F74F
:10040000DFCF8BE590E0909300028093FF01609135
:10041000FD017091FE018091F1019091F201681B44
:10042000790B77FF06C08CE590E0909300028093F3
:10043000FF014091FB015091FC012091EF013091AF
:10044000F001421B530B57FF09C08091FF019091AF
:1004500000020196909300028093FF012091F90120
:100460003091FA01E0916000F09161002E1B3F0B8A
:1004700037FF09C08091FF0190910002019690938F
:1004800000028093FF018091FF019091000277FFAD
:1004900003C07195619571096A3071050CF00EC148
:1004A0000396909300028093FF01CA0157FF03C097
:1004B0009195819591098A30910574F04091FF01E1
:1004C00050910002843691050CF0FFC04F5F5F4FE2
:1004D000509300024093FF01C90137FF03C091957B
:1004E000819591098A30910574F02091FF01309136
:1004F0000002843691050CF0EBC02F5F3F4F309324
:1005000000022093FF016EEC70E087EE92E00E9403
:10051000720B60E273E080E090E00E94DF086BED18
:1005200070E087EE92E00E94720B6BEF70E087EE56
:1005300092E00E94720B60E171E087EE92E00E940F
:10054000720B64E670E080E090E00E94DF0861E3F7
:1005500071E087EE92E00E94720B6091FF01709152
:1005600000024AE050E087EE92E00E94150C61E440
:1005700071E087EE92E00E94720B66E471E087EE14
:1005800092E00E94720B64E670E080E090E00E94CE
:10059000DF08F80161918F0187EE92E00E947A0BEB
:1005A000F1E00B3C1F07A9F76AE671E087EE92E0E5
:1005B0000E94720B04ED11E0699187EE92E00E94B7
:1005C0007A0B0C171D07C1F764E771E087EE92E024
:1005D0000E94720B6091FD017091FE018091F1010A
:1005E0009091F201681B790B4AE050E087EE92E0AF
:1005F0000E94150C6EE771E087EE92E00E94720B8C
:100600006091FB017091FC018091EF019091F001EC
:10061000681B790B4AE050E087EE92E00E94150CCF
:1006200068E871E087EE92E00E94720B6091F90138
:100630007091FA018091600090916100681B790BC4
:100640004AE050E087EE92E00E94150C62E971E00A
:1006500087EE92E00E94720B64E670E080E090E02A
:100660000E94DF086AE187EE92E00E947A0B64EF55
:1006700071E080E090E00E94DF081092000210928A
:10068000FF0187EE92E00E948809181619061CF5F2
:1006900087EE92E00E94A2092091FF0130910002B2
:1006A000F901EF5FFD4F80832F5F3F4F30930002D2
:1006B0002093FF012931310521F7DFCF6436710521
:1006C00014F40496EECE0596ECCE4E5F5F4F00CF4D
:1006D0002E5F3F4F14CFDF91CF911F910F910C945C
:1006E000C2008FB90000779BFECF8FB10895FC0147
:1006F0008AE090E0958B848B81E0868B40E45BE41C
:100700006CE470E0478B508F618F728F8083118211
:1007100083EC9BEAA6E7BBE382839383A483B58340
:1007200088ED9BE6A6E7BBE386839783A087B18726
:1007300082EF94EEA4E6BBE382879387A487B58714
:1007400008950F931F93CF93DF93EC01062F142F7F
:1007500060E08C890E945A09802F0E947103812FCA
:100760000E94710361E08C89DF91CF911F910F91FD
:100770000C945A09CF92DF92EF92FF920F931F933E
:10078000CF93DF938C017A016901C62FC068423094
:10079000510514F0C62FC06C60E0F80184890E94F6
:1007A0005A098C2F0E947103E601CE018C199D0914
:1007B0008E159F052CF480E00E9471038993F5CF7C
:1007C00061E0F8018489DF91CF911F910F91FF9033
:1007D000EF90DF90CF900C945A09CF93DF93D62FF0
:1007E000C42F63E570E08AE192E00E94DB056D2F83
:1007F0008AE192E00E9463056C2F8AE192E00E94F8
:1008000063058AE192E0DF91CF910C945606FC01DA
:10081000268921110C94ED030C94A103CF93DF934F
:10082000EC018E89882321F08AE192E00E94BF05C5
:1008300040E06DE2CE010E94070440E16DE2CE018E
:100840000E94070448E06DE2CE01DF91CF910C9445
:100850000704AF92BF92CF92DF92EF92FF920F9375
:100860001F93CF93DF938C01C62F7A01690163E553
:1008700070E08AE192E00E94DB056C2F8AE192E051
:100880000E9463058AE192E00E945606A70163E593
:1008900070E08AE192E00E945306E6015E01AC1826
:1008A000BD088AE192E00E940305892B31F08AE1BC
:1008B00092E00E940A058993F1CFEA14FB0421F02B
:1008C000F801108281E08183DF91CF911F910F9118
:1008D000FF90EF90DF90CF90BF90AF900895FC0114
:1008E000768971110C9429040C94BA03CF92DF928B
:1008F000EF92FF920F931F93CF93DF93EC016B0165
:100900007A0189019C01225F3F4F46E050E062E39B
:100910000E946F048E859F85F6019183808388896C
:100920009989F701918380838A899B89F801918352
:100930008083DF91CF911F910F91FF90EF90DF9017
:10094000CF900895FF920F931F93CF93DF931F9241
:10095000CDB7DEB78C0164507109F12C6D30710593
:1009600020F46B567E4FFB01F0809E012F5F3F4FBE
:1009700041E050E061E3C8010E946F0449814C7E70
:100980004F2961E3C8010E9407040F90DF91CF91C6
:100990001F910F91FF900895DF92EF92FF920F93B6
:1009A0001F93CF93DF931F92CDB7DEB78C01F62E46
:1009B000D42EE22E9E012F5F3F4F41E050E00E9477
:1009C0006F0421E030E001C0220FDA94EAF7898158
:1009D000EE2081F0822B898349816F2DC8010E940E
:1009E00007040F90DF91CF911F910F91FF90EF902F
:1009F000DF90089520958223EECF262F46E050E029
:100A000061E30C94CC0480914E0290914F02891BBB
:100A1000990B089590914F0280914E022FEF3FEF76
:100A2000981748F4E92FF0E0E05BFD4F208130E0BB
:100A30009F5F90934F02C9010895E0914F0280910A
:100A40004E02E81730F4F0E0E05BFD4F808190E06B
:100A500008958FEF9FEF08950895CF93DF93EC01F2
:100A6000E0912602F09127023097F1F090914F0229
:100A700080914E029817C0F090E0292F30E02617A1
:100A8000370754F4DE01A20FB31F4C91205B3D4F9A
:100A9000D9014C939F5FF1CF10924F0260934E02A9
:100AA000CB01DF91CF910994DF91CF910895E0912F
:100AB0002802F0912902309729F010922C0210920E
:100AC0002B0209940895CF93DF931F92CDB7DEB721
:100AD000698320912A022223F9F020912B022032EF
:100AE00058F021E030E0FC013383228390E080E085
:100AF0000F90DF91CF91089580912C02E82FF0E0C4
:100B0000E35DFD4F998190838F5F80932C028093EA
:100B10002B0281E090E0ECCF61E0CE0101960E94D3
:100B20001907F7CFCF92DF92EF92FF920F931F93A7
:100B3000CF93DF937C01CB018A0120912A022223EB
:100B400089F0EB016B01C40ED51ECC15DD0569F0F3
:100B50006991D701ED91FC910190F081E02DC701E1
:100B60000995F3CF642F0E941907C801DF91CF9137
:100B70001F910F91FF90EF90DF90CF90089510920A
:100B80004F0210924E0210922C0210922B020E94E1
:100B90006A0687E595E00E9445078DE295E00C9492
:100BA000400781E080932A0260934D0210922C024C
:100BB00010922B0208950C94D1050F93062F21E07B
:100BC00040912B026DE272E080914D020E94C506B9
:100BD00010922C0210922B0210922A020F9108956B
:100BE0004F925F926F927F92AF92BF92CF92EF92AD
:100BF000FF920F931F93CF93DF935C01F62ED42FB8
:100C000028013901EE2019F10E94D105CE2DC43002
:100C100008F0C3E0C150B8F028E0C29FC001112421
:100C2000A301920104C056954795379527958A955B
:100C3000D2F7B901D501ED91FC910190F081E02D41
:100C4000C5010995E7CF60E0C5010E94DD054D2F84
:100C5000D13208F040E22C2D60E572E08F2D0E9429
:100C6000800610924F0280934E02DF91CF911F9128
:100C70000F91FF90EF90CF90BF90AF907F906F90CB
:100C80005F904F900895CF92EF920F931F93C22ED3
:100C9000E12C00E010E098010E94F0051F910F91F7
:100CA000EF90CF90089521E00C94430661E00C94FE
:100CB000DD05EAE1F2E01382128288EE93E0A0E023
:100CC000B0E084839583A683B78386EA91E091831D
:100CD000808308951092DD0281E08093DB02109200
:100CE000DA0261E081E10E945A0961E080E10E943C
:100CF0005A090898099880E280B985E486BF08956A
:100D0000413208F040C09091DD029111FCCF91E09A
:100D10009093DD022093DB022FEF2093700210925C
:100D2000B502240F2093B4029093DC029091DC0270
:100D3000880F892B8093DC028091DA028130F1F4F4
:100D40001092DA028091DC0283B906B603FCFACF76
:100D500085EC86BF8091DD028130E1F38091B502A0
:100D6000841710F44091B502A6EBB2E0962FFB0178
:100D70008E2F891B841720F0842F089585EEE9CFEC
:100D80008D918193F5CF40E0F7CF0F93413208F07A
:100D900048C09091DD029111FCCF92E09093DD026A
:100DA0000093DB029FEF909370021092B502409384
:100DB000B402362FA6EBB2E0FB019E2F931B9417D3
:100DC00058F11092DC029091DC02880F892B8093FD
:100DD000DC028091DA02813011F51092DA02809102
:100DE000DC0283B906B603FCFACF85EC86BF22236A
:100DF00021F08091DD028230D1F3809170028F3F2B
:100E000091F080917002803281F080917002803385
:100E100071F084E00F91089591919D93CECF85EE6E
:100E2000E5CF81E0F7CF80E0F5CF82E0F3CF83E03C
:100E3000F1CF20919202260F3327331F2132310543
:100E4000ECF42091DD02FC0190E080E0243069F0B8
:100E500082E00895A09192022191AC014C565D4F21
:100E6000A40FB52FB11D2C930196861798F380918E
:100E70009202680F6093920280E0089581E00895E5
:100E80009093D7028093D60208959093D9028093CD
:100E9000D802089585ED86BF06B604FCFDCF1092FA
:100EA000DD02089585EC86BF1092DD0208951F9241
:100EB0000F920FB60F9211242F933F934F935F938E
:100EC0006F937F938F939F93AF93BF93EF93FF9312
:100ED00081B1887F803609F44CC008F03FC0883269
:100EE00009F4A4C018F5803109F49AC0B8F4882335
:100EF00009F4F2C0883009F493C0FF91EF91BF91DB
:100F0000AF919F918F917F916F915F914F913F91A1
:100F10002F910F900FBE0F901F901895883109F4F4
:100F200085C0803251F78093700215C0803409F477
:100F300099C048F48033B9F38833F9F6809370028E
:100F40000E945207DACF803509F481C0883509F450
:100F500091C0883491F60E944A07CFCF883909F4AE
:100F600087C030F5883729F050F4883611F0803783
:100F700021F683E08093DD021092710254C088381C
:100F800009F476C0803919F0803809F0B6CF809125
:100F90007102803208F06CC0E091710281E08E0F26
:100FA0008093710283B1F0E0EE58FD4F80833BC027
:100FB000803B39F0E0F4803A09F473C0883A09F0D4
:100FC0009CCF84E08093DD021092930210929202F3
:100FD000E091D802F091D902099580919202811195
:100FE0000FC081E0809392021092940209C0803C6D
:100FF00009F470C0883C09F46DC0883B09F07DCFCE
:10100000E091930281E08E0F80939302F0E0EC5622
:10101000FD4F808183B9909193028091920226C006
:101020008091DC0283B985EC86BF67CF9091B502D1
:101030008091B402981748F5E091B50281E08E0FD7
:101040008093B502F0E0EA54FD4F8081EBCFE09150
:10105000B50281E08E0F8093B50283B1F0E0EA54CF
:10106000FD4F80839091B5028091B4029817D8F219
:1010700085E8DACFE091B50281E08E0F8093B5026A
:1010800083B1F0E0EA54FD4F80838091DB0281114F
:1010900062CF81E08093DA0284EA86BF1092DD029B
:1010A0002CCF0E94520780917102803230F4E0917F
:1010B0007102F0E0EE58FD4F10826091710270E015
:1010C000E091D602F091D70282E792E00995109262
:1010D000710213CF85ECE1CF109270023CCF1F92CA
:1010E0000F920FB60F9211242F933F938F939F93DC
:1010F000AF93BF938091DF029091E002A091E10253
:10110000B091E2023091DE0226E0230F2D3758F530
:101110000296A11DB11D2093DE028093DF02909301
:10112000E002A093E102B093E2028091E302909189
:10113000E402A091E502B091E6020196A11DB11D65
:101140008093E3029093E402A093E502B093E60259
:10115000BF91AF919F918F913F912F910F900FBEB3
:101160000F901F90189529E8230F0396A11DB11D1C
:10117000D2CF3FB7F8948091E3029091E402A0911E
:10118000E502B091E60222B708B600FE05C02F3F87
:1011900019F00196A11DB11D3FBFBA2FA92F982F9D
:1011A0008827BC01CD01620F711D811D911D43E097
:1011B000660F771F881F991F4A95D1F708958F9260
:1011C0009F92AF92BF92CF92DF92EF92FF926B010C
:1011D0007C010E94B9084B015C01C114D104E104F7
:1011E000F104E9F00E942C0C0E94B90868197909F1
:1011F0008A099B09683E73408105910570F321E0DF
:10120000C21AD108E108F10888EE880E83E0981E22
:10121000A11CB11CC114D104E104F10429F7FF9011
:10122000EF90DF90CF90BF90AF909F908F900895F8
:10123000789483B7826083BF83B7816083BF83B7AD
:10124000806483BF83B7886083BF89B7816089BFAB
:101250001EBC8EB582608EBD8EB581608EBD8FB591
:1012600081608FBD85B5846085BD85B5806485BD91
:10127000329A319A3098379A1AB80895843059F0D2
:1012800028F4813099F0823089F00895853039F062
:10129000873041F008958FB58F778FBD08958FB552
:1012A0008F7DFBCF85B58F7D85BD089583B78F7DFD
:1012B00083BF08951F93CF93DF93282F30E0F90168
:1012C000EC5AFF4F8491F901EC58FF4FD491F9018A
:1012D000EC56FF4FC491CC23A9F0162F81110E9428
:1012E0003E09EC2FF0E0EE0FFF1FEC54FF4FA591ED
:1012F000B4918FB7F894EC91111108C0D095DE230A
:10130000DC938FBFDF91CF911F910895DE2BF8CF33
:10131000FC01918D228D892F90E0805C9F4F821B74
:1013200091098F7399270895FC01918D828D9817EB
:1013300031F0828DE80FF11D858D90E008958FEFDB
:101340009FEF0895FC01918D828D981761F0A28D19
:10135000AE0FBF2FB11D5D968C91928D9F5F9F73D5
:10136000928F90E008958FEF9FEF089581E09BE0CA
:10137000892B49F080E090E0892B29F00E94010B35
:1013800081110C9400000895FC01A48DA80FB92FC1
:10139000B11DA35ABF4F2C91848D90E001968F739D
:1013A0009927848FA689B7892C93A089B1898C91BC
:1013B00080648C93938D848D981306C00288F38982
:1013C000E02D80818F7D80830895CF93DF93EC01A2
:1013D000888D8823B9F0AA89BB89E889F9898C911D
:1013E00085FD03C0808186FD0DC00FB607FCF7CFD9
:1013F0008C9185FFF2CF808185FFEDCFCE010E94D9
:10140000C409E9CFDF91CF910895EF92FF920F9336
:101410001F93CF93DF93EC0181E0888F9B8D8C8DA0
:10142000981316C0E889F989808185FF11C0EE897B
:10143000FF896083E889F98980818064808381E005
:1014400090E0DF91CF911F910F91FF90EF90089561
:10145000F62E0B8D10E00F5F1F4F0F731127E02E3C
:101460008C8D8E110CC00FB607FCFACFE889F98974
:10147000808185FFF5CFCE010E94C409F1CFEB8DAD
:10148000EC0FFD2FF11DE35AFF4FF0820B8FEA891D
:10149000FB8980818062D2CFCF92DF92EF92FF9260
:1014A0001F93CF93DF93EC016A017B01122F60E859
:1014B00074E88EE190E0A70196010E942D0C215066
:1014C0003109410951095695479537952795E8897E
:1014D000F98982E08083211580E1380798F0E88956
:1014E000F989108260E472E48FE090E0A701960130
:1014F0000E942D0C215031094109510956954795FB
:1015000037952795EC85FD853083EE85FF85208313
:10151000188E1068EC89FD891083EA89FB89808127
:1015200080618083EA89FB89808188608083EA8981
:10153000FB89808180688083EA89FB8980818F7D37
:101540008083DF91CF911F91FF90EF90DF90CF903C
:1015500008951F920F920FB60F9211242F938F931D
:101560009F93EF93FF93E091F702F091F80280814F
:10157000E091FD02F091FE0282FD1BC090818091FE
:1015800000038F5F8F7320910103821741F0E09178
:101590000003F0E0E951FD4F958F80930003FF9128
:1015A000EF919F918F912F910F900FBE0F901F90F1
:1015B00018958081F4CF1F920F920FB60F921124CD
:1015C0002F933F934F935F936F937F938F939F934B
:1015D000AF93BF93EF93FF9387EE92E00E94C4090D
:1015E000FF91EF91BF91AF919F918F917F916F91FB
:1015F0005F914F913F912F910F900FBE0F901F90D1
:10160000189587EE92E00E94880921E0892B09F461
:1016100020E0822F0895E7EEF2E01382128288EE36
:1016200093E0A0E0B0E084839583A683B78386EB44
:1016300091E09183808380E490E09587848729E21C
:1016400030E0378726872BE230E0318B208B2AE28F
:1016500030E0338B228B958B848B8CE290E0978BE0
:10166000868B118E128E138E148E0895AF92BF92B8
:10167000CF92DF92EF92FF920F931F93CF93DF935E
:101680006C017B018B01040F151FEB015E01AE188D
:10169000BF08C017D10759F06991D601ED91FC91AF
:1016A0000190F081E02DC6010995892B79F7C501DC
:1016B000DF91CF911F910F91FF90EF90DF90CF902E
:1016C000BF90AF900895FB0101900020E9F731979A
:1016D000AF01461B570BDC01ED91FC910280F381B9
:1016E000E02D09946115710511F00C94630B90E0E5
:1016F00080E00895DC01ED91FC910190F081E02DF6
:1017000009948F929F92AF92BF92EF92FF920F93A4
:101710001F93CF93DF93CDB7DEB7A1970FB6F894A1
:10172000DEBF0FBECDBF7C01FA01CB0119A2223072
:1017300008F42AE08E010F5D1F4F822E912CB12CF0
:10174000A12CBF01A50194010E942D0CF901CA0131
:101750006A300CF5605DD8016E938D01232B242B2C
:10176000252B79F790E080E0109721F0BD01C701AB
:101770000E94630BA1960FB6F894DEBF0FBECDBFDB
:10178000DF91CF911F910F91FF90EF90BF90AF909D
:101790009F908F900895695CDECFCF92DF92EF9299
:1017A000FF920F931F93CF93DF932115310581F49F
:1017B000DC01ED91FC910190F081E02D642FDF912F
:1017C000CF911F910F91FF90EF90DF90CF900994F0
:1017D0002A30310501F52AE077FF1DC06A017B013F
:1017E000EC016DE20E947A0B8C0144275527BA0167
:1017F0004C195D096E097F092AE0CE010E94810B18
:10180000800F911FDF91CF911F910F91FF90EF906B
:10181000DF90CF900895DF91CF911F910F91FF90AE
:10182000EF90DF90CF900C94810B9A01AB01770F72
:10183000660B770B0C94CD0B08950E9418090E943B
:101840001C0C0E948C00C6EBD9E00E943601209748
:10185000E1F30E94B609F9CF0895A1E21A2EAA1B5E
:10186000BB1BFD010DC0AA1FBB1FEE1FFF1FA21750
:10187000B307E407F50720F0A21BB30BE40BF50B4D
:10188000661F771F881F991F1A9469F760957095D6
:10189000809590959B01AC01BD01CF010895EE0F9D
:0E18A000FF1F0590F491E02D0994F894FFCFFE
:1018AE008200200341542B4750533D310D0A004115
:1018BE00542B43474154543D310D0A0041542B479C
:1018CE00505352443D310D0A0041542B4750535250
:1018DE00443D300D0A0041542B4C4F434154494F67
:1018EE004E3D320D0A0041542B4349505354415240
:1018FE00543D22544350222C2238312E33312E3176
:10190E0036392E3133222C383038300D0A004154FE
:10191E002B43495053454E440D0A00504F5354200B
:10192E002F6170692F76312F616464446174612078
:10193E00485454502F312E310D0A00486F73743AAB
:10194E002038312E33312E3136392E31330D0A00F7
:10195E00436F6E74656E742D547970653A206170A4
:10196E00706C69636174696F6E2F6A736F6E0D0AA6
:10197E0000436F6E74656E742D4C656E6774683AB5
:10198E00000D0A0D0A007B22746F6B656E223A22DF
:10199E007063383835716635627079776A69753873
:1019AE00222C226C6F6E223A2200222C226C617441
:1019BE00223A2200222C22615F78223A2200222C27
:1019CE0022615F79223A2200222C22615F7A223A2A
:1019DE002200227D00010000000200000000000035
:1019EE000003000000006305920503050A051D05AE
:1019FE002C0500000000050A360B8809A20994097F
:021A0E00E509E8
:00000001FF
